{
  "contractName": "Faucet",
  "abi": [
    {
      "constant": false,
      "inputs": [],
      "name": "addFunds",
      "outputs": [],
      "payable": true,
      "stateMutability": "payable",
      "type": "function"
    }
  ],
  "bytecode": "0x6080604052348015600f57600080fd5b50606080601d6000396000f3fe608060405260043610601c5760003560e01c8063a26759cb146021575b600080fd5b60276029565b005b56fea265627a7a7231582059401bf1c0cb59f25ddde1bb6571dd12704e35f415142ecc4dbbe40f666d709264736f6c63430005100032",
  "deployedBytecode": "0x608060405260043610601c5760003560e01c8063a26759cb146021575b600080fd5b60276029565b005b56fea265627a7a7231582059401bf1c0cb59f25ddde1bb6571dd12704e35f415142ecc4dbbe40f666d709264736f6c63430005100032",
  "source": "// SPDX-License-Identifier: MIT\npragma solidity >=0.4.22 <0.9.0;\n\ncontract Faucet {\n  \n\n function addFunds() public payable{}\n}\n",
  "sourcePath": "D:\\workschool\\workschool-main\\contracts\\Faucet.sol",
  "compiler": {
    "name": "solc",
    "version": "0.5.16+commit.9c3226ce.Emscripten.clang"
  },
  "schemaVersion": "3.4.4",
  "updatedAt": "2022-08-21T17:41:29.545Z",
  "networkType": "ethereum",
  "devdoc": {
    "methods": {}
  },
  "userdoc": {
    "methods": {}
  }
}